{
  "_format": "hh-sol-artifact-1",
  "contractName": "Create",
  "sourceName": "contracts/Create.sol",
  "abi": [
    {
      "inputs": [],
      "stateMutability": "nonpayable",
      "type": "constructor"
    },
    {
      "anonymous": false,
      "inputs": [
        {
          "indexed": true,
          "internalType": "uint256",
          "name": "candidateId",
          "type": "uint256"
        },
        {
          "indexed": false,
          "internalType": "string",
          "name": "age",
          "type": "string"
        },
        {
          "indexed": false,
          "internalType": "string",
          "name": "name",
          "type": "string"
        },
        {
          "indexed": false,
          "internalType": "string",
          "name": "image",
          "type": "string"
        },
        {
          "indexed": false,
          "internalType": "uint256",
          "name": "voteCount",
          "type": "uint256"
        },
        {
          "indexed": false,
          "internalType": "address",
          "name": "_address",
          "type": "address"
        },
        {
          "indexed": false,
          "internalType": "string",
          "name": "ipfs",
          "type": "string"
        }
      ],
      "name": "CandidateCreate",
      "type": "event"
    },
    {
      "anonymous": false,
      "inputs": [
        {
          "indexed": true,
          "internalType": "uint256",
          "name": "voter_voterId",
          "type": "uint256"
        },
        {
          "indexed": false,
          "internalType": "string",
          "name": "voter_name",
          "type": "string"
        },
        {
          "indexed": false,
          "internalType": "string",
          "name": "voter_image",
          "type": "string"
        },
        {
          "indexed": false,
          "internalType": "address",
          "name": "voter_address",
          "type": "address"
        },
        {
          "indexed": false,
          "internalType": "uint256",
          "name": "voter_allowed",
          "type": "uint256"
        },
        {
          "indexed": false,
          "internalType": "bool",
          "name": "voter_voted",
          "type": "bool"
        },
        {
          "indexed": false,
          "internalType": "uint256",
          "name": "voted_vote",
          "type": "uint256"
        },
        {
          "indexed": false,
          "internalType": "string",
          "name": "voter_ipfs",
          "type": "string"
        }
      ],
      "name": "VoterCreated",
      "type": "event"
    },
    {
      "inputs": [],
      "name": "_candidateId",
      "outputs": [
        {
          "internalType": "uint256",
          "name": "_value",
          "type": "uint256"
        }
      ],
      "stateMutability": "view",
      "type": "function"
    },
    {
      "inputs": [],
      "name": "_voterId",
      "outputs": [
        {
          "internalType": "uint256",
          "name": "_value",
          "type": "uint256"
        }
      ],
      "stateMutability": "view",
      "type": "function"
    },
    {
      "inputs": [
        {
          "internalType": "uint256",
          "name": "",
          "type": "uint256"
        }
      ],
      "name": "candidateAdress",
      "outputs": [
        {
          "internalType": "address",
          "name": "",
          "type": "address"
        }
      ],
      "stateMutability": "view",
      "type": "function"
    },
    {
      "inputs": [
        {
          "internalType": "address",
          "name": "",
          "type": "address"
        }
      ],
      "name": "candidates",
      "outputs": [
        {
          "internalType": "uint256",
          "name": "candidateId",
          "type": "uint256"
        },
        {
          "internalType": "string",
          "name": "age",
          "type": "string"
        },
        {
          "internalType": "string",
          "name": "name",
          "type": "string"
        },
        {
          "internalType": "string",
          "name": "image",
          "type": "string"
        },
        {
          "internalType": "uint256",
          "name": "voteCount",
          "type": "uint256"
        },
        {
          "internalType": "address",
          "name": "_address",
          "type": "address"
        },
        {
          "internalType": "string",
          "name": "ipfs",
          "type": "string"
        }
      ],
      "stateMutability": "view",
      "type": "function"
    },
    {
      "inputs": [],
      "name": "getCandidate",
      "outputs": [
        {
          "internalType": "address[]",
          "name": "",
          "type": "address[]"
        }
      ],
      "stateMutability": "view",
      "type": "function"
    },
    {
      "inputs": [
        {
          "internalType": "address",
          "name": "_address",
          "type": "address"
        }
      ],
      "name": "getCandidateData",
      "outputs": [
        {
          "internalType": "string",
          "name": "",
          "type": "string"
        },
        {
          "internalType": "string",
          "name": "",
          "type": "string"
        },
        {
          "internalType": "uint256",
          "name": "",
          "type": "uint256"
        },
        {
          "internalType": "string",
          "name": "",
          "type": "string"
        },
        {
          "internalType": "uint256",
          "name": "",
          "type": "uint256"
        },
        {
          "internalType": "string",
          "name": "",
          "type": "string"
        },
        {
          "internalType": "address",
          "name": "",
          "type": "address"
        }
      ],
      "stateMutability": "view",
      "type": "function"
    },
    {
      "inputs": [],
      "name": "getCandidateLength",
      "outputs": [
        {
          "internalType": "uint256",
          "name": "",
          "type": "uint256"
        }
      ],
      "stateMutability": "view",
      "type": "function"
    },
    {
      "inputs": [],
      "name": "getVotedVoterList",
      "outputs": [
        {
          "internalType": "address[]",
          "name": "",
          "type": "address[]"
        }
      ],
      "stateMutability": "view",
      "type": "function"
    },
    {
      "inputs": [
        {
          "internalType": "address",
          "name": "_address",
          "type": "address"
        }
      ],
      "name": "getVoterData",
      "outputs": [
        {
          "internalType": "uint256",
          "name": "",
          "type": "uint256"
        },
        {
          "internalType": "string",
          "name": "",
          "type": "string"
        },
        {
          "internalType": "string",
          "name": "",
          "type": "string"
        },
        {
          "internalType": "address",
          "name": "",
          "type": "address"
        },
        {
          "internalType": "string",
          "name": "",
          "type": "string"
        },
        {
          "internalType": "uint256",
          "name": "",
          "type": "uint256"
        },
        {
          "internalType": "bool",
          "name": "",
          "type": "bool"
        }
      ],
      "stateMutability": "view",
      "type": "function"
    },
    {
      "inputs": [],
      "name": "getVoterLength",
      "outputs": [
        {
          "internalType": "uint256",
          "name": "",
          "type": "uint256"
        }
      ],
      "stateMutability": "view",
      "type": "function"
    },
    {
      "inputs": [],
      "name": "getVoterList",
      "outputs": [
        {
          "internalType": "address[]",
          "name": "",
          "type": "address[]"
        }
      ],
      "stateMutability": "view",
      "type": "function"
    },
    {
      "inputs": [
        {
          "internalType": "address",
          "name": "_address",
          "type": "address"
        },
        {
          "internalType": "string",
          "name": "_age",
          "type": "string"
        },
        {
          "internalType": "string",
          "name": "_name",
          "type": "string"
        },
        {
          "internalType": "string",
          "name": "_image",
          "type": "string"
        },
        {
          "internalType": "string",
          "name": "_ipfs",
          "type": "string"
        }
      ],
      "name": "setCandidate",
      "outputs": [],
      "stateMutability": "nonpayable",
      "type": "function"
    },
    {
      "inputs": [
        {
          "internalType": "address",
          "name": "_candidateAddress",
          "type": "address"
        },
        {
          "internalType": "uint256",
          "name": "_candidateVoteId",
          "type": "uint256"
        }
      ],
      "name": "vote",
      "outputs": [],
      "stateMutability": "nonpayable",
      "type": "function"
    },
    {
      "inputs": [
        {
          "internalType": "uint256",
          "name": "",
          "type": "uint256"
        }
      ],
      "name": "votedVoters",
      "outputs": [
        {
          "internalType": "address",
          "name": "",
          "type": "address"
        }
      ],
      "stateMutability": "view",
      "type": "function"
    },
    {
      "inputs": [
        {
          "internalType": "address",
          "name": "_address",
          "type": "address"
        },
        {
          "internalType": "string",
          "name": "_name",
          "type": "string"
        },
        {
          "internalType": "string",
          "name": "_image",
          "type": "string"
        },
        {
          "internalType": "string",
          "name": "_ipfs",
          "type": "string"
        }
      ],
      "name": "voterRight",
      "outputs": [],
      "stateMutability": "nonpayable",
      "type": "function"
    },
    {
      "inputs": [
        {
          "internalType": "address",
          "name": "",
          "type": "address"
        }
      ],
      "name": "voters",
      "outputs": [
        {
          "internalType": "uint256",
          "name": "voter_voterId",
          "type": "uint256"
        },
        {
          "internalType": "string",
          "name": "voter_name",
          "type": "string"
        },
        {
          "internalType": "string",
          "name": "voter_image",
          "type": "string"
        },
        {
          "internalType": "address",
          "name": "voter_address",
          "type": "address"
        },
        {
          "internalType": "uint256",
          "name": "voter_allowed",
          "type": "uint256"
        },
        {
          "internalType": "bool",
          "name": "voter_voted",
          "type": "bool"
        },
        {
          "internalType": "uint256",
          "name": "voter_vote",
          "type": "uint256"
        },
        {
          "internalType": "string",
          "name": "voter_ipfs",
          "type": "string"
        }
      ],
      "stateMutability": "view",
      "type": "function"
    },
    {
      "inputs": [
        {
          "internalType": "uint256",
          "name": "",
          "type": "uint256"
        }
      ],
      "name": "votersAddress",
      "outputs": [
        {
          "internalType": "address",
          "name": "",
          "type": "address"
        }
      ],
      "stateMutability": "view",
      "type": "function"
    },
    {
      "inputs": [],
      "name": "votingOrganiser",
      "outputs": [
        {
          "internalType": "address",
          "name": "",
          "type": "address"
        }
      ],
      "stateMutability": "view",
      "type": "function"
    }
  ],
  "bytecode": "0x608060405234801561001057600080fd5b5033600260006101000a81548173ffffffffffffffffffffffffffffffffffffffff021916908373ffffffffffffffffffffffffffffffffffffffff160217905550612860806100616000396000f3fe608060405234801561001057600080fd5b50600436106101165760003560e01c80638fb4cd80116100a2578063b28d92ae11610071578063b28d92ae14610334578063b9be315214610352578063c91ec71214610370578063cd948ab71461038c578063f7522a83146103aa57610116565b80638fb4cd8014610279578063a3ec138d146102af578063a7388967146102e6578063b10abb361461030457610116565b80635f74bbde116100e95780635f74bbde146101bb57806370218b85146101d75780637831ffb3146101f55780638ab66a90146102255780638e9456851461025b57610116565b80630361419e1461011b57806305ad45a4146101375780632a466ac71461015557806343242daa1461018b575b600080fd5b61013560048036038101906101309190611b7b565b6103c8565b005b61013f610640565b60405161014c9190611c4f565b60405180910390f35b61016f600480360381019061016a9190611c6a565b61064d565b6040516101829796959493929190611d25565b60405180910390f35b6101a560048036038101906101a09190611ddc565b610a94565b6040516101b29190611e09565b60405180910390f35b6101d560048036038101906101d09190611e24565b610ad3565b005b6101df610c9a565b6040516101ec9190611f22565b60405180910390f35b61020f600480360381019061020a9190611ddc565b610d28565b60405161021c9190611e09565b60405180910390f35b61023f600480360381019061023a9190611c6a565b610d67565b6040516102529796959493929190611f44565b60405180910390f35b610263610fe9565b6040516102709190611f22565b60405180910390f35b610293600480360381019061028e9190611c6a565b611077565b6040516102a69796959493929190611fea565b60405180910390f35b6102c960048036038101906102c49190611c6a565b61143f565b6040516102dd98979695949392919061206e565b60405180910390f35b6102ee61164c565b6040516102fb9190611c4f565b60405180910390f35b61031e60048036038101906103199190611ddc565b611658565b60405161032b9190611e09565b60405180910390f35b61033c611697565b6040516103499190611f22565b60405180910390f35b61035a611725565b6040516103679190611c4f565b60405180910390f35b61038a60048036038101906103859190612101565b611731565b005b61039461196c565b6040516103a19190611e09565b60405180910390f35b6103b2611992565b6040516103bf9190611c4f565b60405180910390f35b3373ffffffffffffffffffffffffffffffffffffffff16600260009054906101000a900473ffffffffffffffffffffffffffffffffffffffff1673ffffffffffffffffffffffffffffffffffffffff1614610458576040517f08c379a000000000000000000000000000000000000000000000000000000000815260040161044f9061225e565b60405180910390fd5b610462600061199f565b600061046e60006119b5565b90506000600760008773ffffffffffffffffffffffffffffffffffffffff1673ffffffffffffffffffffffffffffffffffffffff168152602001908152602001600020905060008160040154146104c457600080fd5b60018160040181905550848160010190816104df919061248a565b50838160020190816104f1919061248a565b50858160030160006101000a81548173ffffffffffffffffffffffffffffffffffffffff021916908373ffffffffffffffffffffffffffffffffffffffff1602179055508181600001819055506103e8816006018190555060008160050160006101000a81548160ff02191690831515021790555082816007019081610577919061248a565b506006869080600181540180825580915050600190039060005260206000200160009091909190916101000a81548173ffffffffffffffffffffffffffffffffffffffff021916908373ffffffffffffffffffffffffffffffffffffffff160217905550817ff5f39971dd62d9929e3a9feaa6bb77fe7c7da0001babff8a65a7e51ad0201c1986868985600401548660050160009054906101000a900460ff1687600601548a604051610630979695949392919061255c565b60405180910390a2505050505050565b6000600680549050905090565b60608060006060600060606000600460008973ffffffffffffffffffffffffffffffffffffffff1673ffffffffffffffffffffffffffffffffffffffff168152602001908152602001600020600101600460008a73ffffffffffffffffffffffffffffffffffffffff1673ffffffffffffffffffffffffffffffffffffffff168152602001908152602001600020600201600460008b73ffffffffffffffffffffffffffffffffffffffff1673ffffffffffffffffffffffffffffffffffffffff16815260200190815260200160002060000154600460008c73ffffffffffffffffffffffffffffffffffffffff1673ffffffffffffffffffffffffffffffffffffffff168152602001908152602001600020600301600460008d73ffffffffffffffffffffffffffffffffffffffff1673ffffffffffffffffffffffffffffffffffffffff16815260200190815260200160002060040154600460008e73ffffffffffffffffffffffffffffffffffffffff1673ffffffffffffffffffffffffffffffffffffffff168152602001908152602001600020600601600460008f73ffffffffffffffffffffffffffffffffffffffff1673ffffffffffffffffffffffffffffffffffffffff16815260200190815260200160002060050160009054906101000a900473ffffffffffffffffffffffffffffffffffffffff16868054610857906122ad565b80601f0160208091040260200160405190810160405280929190818152602001828054610883906122ad565b80156108d05780601f106108a5576101008083540402835291602001916108d0565b820191906000526020600020905b8154815290600101906020018083116108b357829003601f168201915b505050505096508580546108e3906122ad565b80601f016020809104026020016040519081016040528092919081815260200182805461090f906122ad565b801561095c5780601f106109315761010080835404028352916020019161095c565b820191906000526020600020905b81548152906001019060200180831161093f57829003601f168201915b5050505050955083805461096f906122ad565b80601f016020809104026020016040519081016040528092919081815260200182805461099b906122ad565b80156109e85780601f106109bd576101008083540402835291602001916109e8565b820191906000526020600020905b8154815290600101906020018083116109cb57829003601f168201915b505050505093508180546109fb906122ad565b80601f0160208091040260200160405190810160405280929190818152602001828054610a27906122ad565b8015610a745780601f10610a4957610100808354040283529160200191610a74565b820191906000526020600020905b815481529060010190602001808311610a5757829003601f168201915b505050505091509650965096509650965096509650919395979092949650565b60068181548110610aa457600080fd5b906000526020600020016000915054906101000a900473ffffffffffffffffffffffffffffffffffffffff1681565b6000600760003373ffffffffffffffffffffffffffffffffffffffff1673ffffffffffffffffffffffffffffffffffffffff16815260200190815260200160002090508060050160009054906101000a900460ff1615610b68576040517f08c379a0000000000000000000000000000000000000000000000000000000008152600401610b5f9061262c565b60405180910390fd5b6000816004015403610baf576040517f08c379a0000000000000000000000000000000000000000000000000000000008152600401610ba690612698565b60405180910390fd5b60018160050160006101000a81548160ff0219169083151502179055508181600601819055506005339080600181540180825580915050600190039060005260206000200160009091909190916101000a81548173ffffffffffffffffffffffffffffffffffffffff021916908373ffffffffffffffffffffffffffffffffffffffff1602179055508060040154600460008573ffffffffffffffffffffffffffffffffffffffff1673ffffffffffffffffffffffffffffffffffffffff1681526020019081526020016000206004016000828254610c8e91906126e7565b92505081905550505050565b60606003805480602002602001604051908101604052809291908181526020018280548015610d1e57602002820191906000526020600020905b8160009054906101000a900473ffffffffffffffffffffffffffffffffffffffff1673ffffffffffffffffffffffffffffffffffffffff1681526020019060010190808311610cd4575b5050505050905090565b60058181548110610d3857600080fd5b906000526020600020016000915054906101000a900473ffffffffffffffffffffffffffffffffffffffff1681565b6004602052806000526040600020600091509050806000015490806001018054610d90906122ad565b80601f0160208091040260200160405190810160405280929190818152602001828054610dbc906122ad565b8015610e095780601f10610dde57610100808354040283529160200191610e09565b820191906000526020600020905b815481529060010190602001808311610dec57829003601f168201915b505050505090806002018054610e1e906122ad565b80601f0160208091040260200160405190810160405280929190818152602001828054610e4a906122ad565b8015610e975780601f10610e6c57610100808354040283529160200191610e97565b820191906000526020600020905b815481529060010190602001808311610e7a57829003601f168201915b505050505090806003018054610eac906122ad565b80601f0160208091040260200160405190810160405280929190818152602001828054610ed8906122ad565b8015610f255780601f10610efa57610100808354040283529160200191610f25565b820191906000526020600020905b815481529060010190602001808311610f0857829003601f168201915b5050505050908060040154908060050160009054906101000a900473ffffffffffffffffffffffffffffffffffffffff1690806006018054610f66906122ad565b80601f0160208091040260200160405190810160405280929190818152602001828054610f92906122ad565b8015610fdf5780601f10610fb457610100808354040283529160200191610fdf565b820191906000526020600020905b815481529060010190602001808311610fc257829003601f168201915b5050505050905087565b6060600580548060200260200160405190810160405280929190818152602001828054801561106d57602002820191906000526020600020905b8160009054906101000a900473ffffffffffffffffffffffffffffffffffffffff1673ffffffffffffffffffffffffffffffffffffffff1681526020019060010190808311611023575b5050505050905090565b600060608060006060600080600760008973ffffffffffffffffffffffffffffffffffffffff1673ffffffffffffffffffffffffffffffffffffffff16815260200190815260200160002060000154600760008a73ffffffffffffffffffffffffffffffffffffffff1673ffffffffffffffffffffffffffffffffffffffff168152602001908152602001600020600101600760008b73ffffffffffffffffffffffffffffffffffffffff1673ffffffffffffffffffffffffffffffffffffffff168152602001908152602001600020600201600760008c73ffffffffffffffffffffffffffffffffffffffff1673ffffffffffffffffffffffffffffffffffffffff16815260200190815260200160002060030160009054906101000a900473ffffffffffffffffffffffffffffffffffffffff16600760008d73ffffffffffffffffffffffffffffffffffffffff1673ffffffffffffffffffffffffffffffffffffffff168152602001908152602001600020600701600760008e73ffffffffffffffffffffffffffffffffffffffff1673ffffffffffffffffffffffffffffffffffffffff16815260200190815260200160002060040154600760008f73ffffffffffffffffffffffffffffffffffffffff1673ffffffffffffffffffffffffffffffffffffffff16815260200190815260200160002060050160009054906101000a900460ff1685805461128e906122ad565b80601f01602080910402602001604051908101604052809291908181526020018280546112ba906122ad565b80156113075780601f106112dc57610100808354040283529160200191611307565b820191906000526020600020905b8154815290600101906020018083116112ea57829003601f168201915b5050505050955084805461131a906122ad565b80601f0160208091040260200160405190810160405280929190818152602001828054611346906122ad565b80156113935780601f1061136857610100808354040283529160200191611393565b820191906000526020600020905b81548152906001019060200180831161137657829003601f168201915b505050505094508280546113a6906122ad565b80601f01602080910402602001604051908101604052809291908181526020018280546113d2906122ad565b801561141f5780601f106113f45761010080835404028352916020019161141f565b820191906000526020600020905b81548152906001019060200180831161140257829003601f168201915b505050505092509650965096509650965096509650919395979092949650565b6007602052806000526040600020600091509050806000015490806001018054611468906122ad565b80601f0160208091040260200160405190810160405280929190818152602001828054611494906122ad565b80156114e15780601f106114b6576101008083540402835291602001916114e1565b820191906000526020600020905b8154815290600101906020018083116114c457829003601f168201915b5050505050908060020180546114f6906122ad565b80601f0160208091040260200160405190810160405280929190818152602001828054611522906122ad565b801561156f5780601f106115445761010080835404028352916020019161156f565b820191906000526020600020905b81548152906001019060200180831161155257829003601f168201915b5050505050908060030160009054906101000a900473ffffffffffffffffffffffffffffffffffffffff16908060040154908060050160009054906101000a900460ff16908060060154908060070180546115c9906122ad565b80601f01602080910402602001604051908101604052809291908181526020018280546115f5906122ad565b80156116425780601f1061161757610100808354040283529160200191611642565b820191906000526020600020905b81548152906001019060200180831161162557829003601f168201915b5050505050905088565b60018060000154905081565b6003818154811061166857600080fd5b906000526020600020016000915054906101000a900473ffffffffffffffffffffffffffffffffffffffff1681565b6060600680548060200260200160405190810160405280929190818152602001828054801561171b57602002820191906000526020600020905b8160009054906101000a900473ffffffffffffffffffffffffffffffffffffffff1673ffffffffffffffffffffffffffffffffffffffff16815260200190600101908083116116d1575b5050505050905090565b60008060000154905081565b3373ffffffffffffffffffffffffffffffffffffffff16600260009054906101000a900473ffffffffffffffffffffffffffffffffffffffff1673ffffffffffffffffffffffffffffffffffffffff16146117c1576040517f08c379a00000000000000000000000000000000000000000000000000000000081526004016117b89061278d565b60405180910390fd5b6117cb600161199f565b60006117d760016119b5565b90506000600460008873ffffffffffffffffffffffffffffffffffffffff1673ffffffffffffffffffffffffffffffffffffffff16815260200190815260200160002090508581600101908161182d919061248a565b508481600201908161183f919061248a565b508181600001819055508381600301908161185a919061248a565b5060008160040181905550868160050160006101000a81548173ffffffffffffffffffffffffffffffffffffffff021916908373ffffffffffffffffffffffffffffffffffffffff160217905550828160060190816118b9919061248a565b506003879080600181540180825580915050600190039060005260206000200160009091909190916101000a81548173ffffffffffffffffffffffffffffffffffffffff021916908373ffffffffffffffffffffffffffffffffffffffff160217905550817fd297f12b256bb8485a6013fb5e302017018123e99a0ebb20756c09e1707b4b9087878785600401548c8960405161195b969594939291906127ad565b60405180910390a250505050505050565b600260009054906101000a900473ffffffffffffffffffffffffffffffffffffffff1681565b6000600380549050905090565b6001816000016000828254019250508190555050565b600081600001549050919050565b6000604051905090565b600080fd5b600080fd5b600073ffffffffffffffffffffffffffffffffffffffff82169050919050565b6000611a02826119d7565b9050919050565b611a12816119f7565b8114611a1d57600080fd5b50565b600081359050611a2f81611a09565b92915050565b600080fd5b600080fd5b6000601f19601f8301169050919050565b7f4e487b7100000000000000000000000000000000000000000000000000000000600052604160045260246000fd5b611a8882611a3f565b810181811067ffffffffffffffff82111715611aa757611aa6611a50565b5b80604052505050565b6000611aba6119c3565b9050611ac68282611a7f565b919050565b600067ffffffffffffffff821115611ae657611ae5611a50565b5b611aef82611a3f565b9050602081019050919050565b82818337600083830152505050565b6000611b1e611b1984611acb565b611ab0565b905082815260208101848484011115611b3a57611b39611a3a565b5b611b45848285611afc565b509392505050565b600082601f830112611b6257611b61611a35565b5b8135611b72848260208601611b0b565b91505092915050565b60008060008060808587031215611b9557611b946119cd565b5b6000611ba387828801611a20565b945050602085013567ffffffffffffffff811115611bc457611bc36119d2565b5b611bd087828801611b4d565b935050604085013567ffffffffffffffff811115611bf157611bf06119d2565b5b611bfd87828801611b4d565b925050606085013567ffffffffffffffff811115611c1e57611c1d6119d2565b5b611c2a87828801611b4d565b91505092959194509250565b6000819050919050565b611c4981611c36565b82525050565b6000602082019050611c646000830184611c40565b92915050565b600060208284031215611c8057611c7f6119cd565b5b6000611c8e84828501611a20565b91505092915050565b600081519050919050565b600082825260208201905092915050565b60005b83811015611cd1578082015181840152602081019050611cb6565b60008484015250505050565b6000611ce882611c97565b611cf28185611ca2565b9350611d02818560208601611cb3565b611d0b81611a3f565b840191505092915050565b611d1f816119f7565b82525050565b600060e0820190508181036000830152611d3f818a611cdd565b90508181036020830152611d538189611cdd565b9050611d626040830188611c40565b8181036060830152611d748187611cdd565b9050611d836080830186611c40565b81810360a0830152611d958185611cdd565b9050611da460c0830184611d16565b98975050505050505050565b611db981611c36565b8114611dc457600080fd5b50565b600081359050611dd681611db0565b92915050565b600060208284031215611df257611df16119cd565b5b6000611e0084828501611dc7565b91505092915050565b6000602082019050611e1e6000830184611d16565b92915050565b60008060408385031215611e3b57611e3a6119cd565b5b6000611e4985828601611a20565b9250506020611e5a85828601611dc7565b9150509250929050565b600081519050919050565b600082825260208201905092915050565b6000819050602082019050919050565b611e99816119f7565b82525050565b6000611eab8383611e90565b60208301905092915050565b6000602082019050919050565b6000611ecf82611e64565b611ed98185611e6f565b9350611ee483611e80565b8060005b83811015611f15578151611efc8882611e9f565b9750611f0783611eb7565b925050600181019050611ee8565b5085935050505092915050565b60006020820190508181036000830152611f3c8184611ec4565b905092915050565b600060e082019050611f59600083018a611c40565b8181036020830152611f6b8189611cdd565b90508181036040830152611f7f8188611cdd565b90508181036060830152611f938187611cdd565b9050611fa26080830186611c40565b611faf60a0830185611d16565b81810360c0830152611fc18184611cdd565b905098975050505050505050565b60008115159050919050565b611fe481611fcf565b82525050565b600060e082019050611fff600083018a611c40565b81810360208301526120118189611cdd565b905081810360408301526120258188611cdd565b90506120346060830187611d16565b81810360808301526120468186611cdd565b905061205560a0830185611c40565b61206260c0830184611fdb565b98975050505050505050565b600061010082019050612084600083018b611c40565b8181036020830152612096818a611cdd565b905081810360408301526120aa8189611cdd565b90506120b96060830188611d16565b6120c66080830187611c40565b6120d360a0830186611fdb565b6120e060c0830185611c40565b81810360e08301526120f28184611cdd565b90509998505050505050505050565b600080600080600060a0868803121561211d5761211c6119cd565b5b600061212b88828901611a20565b955050602086013567ffffffffffffffff81111561214c5761214b6119d2565b5b61215888828901611b4d565b945050604086013567ffffffffffffffff811115612179576121786119d2565b5b61218588828901611b4d565b935050606086013567ffffffffffffffff8111156121a6576121a56119d2565b5b6121b288828901611b4d565b925050608086013567ffffffffffffffff8111156121d3576121d26119d2565b5b6121df88828901611b4d565b9150509295509295909350565b7f4f6e6c79206f7267616e697365722063616e20637265617465206120766f746560008201527f7200000000000000000000000000000000000000000000000000000000000000602082015250565b6000612248602183611ca2565b9150612253826121ec565b604082019050919050565b600060208201905081810360008301526122778161223b565b9050919050565b7f4e487b7100000000000000000000000000000000000000000000000000000000600052602260045260246000fd5b600060028204905060018216806122c557607f821691505b6020821081036122d8576122d761227e565b5b50919050565b60008190508160005260206000209050919050565b60006020601f8301049050919050565b600082821b905092915050565b6000600883026123407fffffffffffffffffffffffffffffffffffffffffffffffffffffffffffffffff82612303565b61234a8683612303565b95508019841693508086168417925050509392505050565b6000819050919050565b600061238761238261237d84611c36565b612362565b611c36565b9050919050565b6000819050919050565b6123a18361236c565b6123b56123ad8261238e565b848454612310565b825550505050565b600090565b6123ca6123bd565b6123d5818484612398565b505050565b5b818110156123f9576123ee6000826123c2565b6001810190506123db565b5050565b601f82111561243e5761240f816122de565b612418846122f3565b81016020851015612427578190505b61243b612433856122f3565b8301826123da565b50505b505050565b600082821c905092915050565b600061246160001984600802612443565b1980831691505092915050565b600061247a8383612450565b9150826002028217905092915050565b61249382611c97565b67ffffffffffffffff8111156124ac576124ab611a50565b5b6124b682546122ad565b6124c18282856123fd565b600060209050601f8311600181146124f457600084156124e2578287015190505b6124ec858261246e565b865550612554565b601f198416612502866122de565b60005b8281101561252a57848901518255600182019150602085019450602081019050612505565b868310156125475784890151612543601f891682612450565b8355505b6001600288020188555050505b505050505050565b600060e0820190508181036000830152612576818a611cdd565b9050818103602083015261258a8189611cdd565b90506125996040830188611d16565b6125a66060830187611c40565b6125b36080830186611fdb565b6125c060a0830185611c40565b81810360c08301526125d28184611cdd565b905098975050505050505050565b7f596f75206861766520616c726561647920766f74656400000000000000000000600082015250565b6000612616601683611ca2565b9150612621826125e0565b602082019050919050565b6000602082019050818103600083015261264581612609565b9050919050565b7f596f752068617665204e6f20726967687420746f20766f746500000000000000600082015250565b6000612682601983611ca2565b915061268d8261264c565b602082019050919050565b600060208201905081810360008301526126b181612675565b9050919050565b7f4e487b7100000000000000000000000000000000000000000000000000000000600052601160045260246000fd5b60006126f282611c36565b91506126fd83611c36565b9250828201905080821115612715576127146126b8565b5b92915050565b7f4f6e6c79204f7267616e697365722063616e20617574686f72697a656420636160008201527f6e64696461746500000000000000000000000000000000000000000000000000602082015250565b6000612777602783611ca2565b91506127828261271b565b604082019050919050565b600060208201905081810360008301526127a68161276a565b9050919050565b600060c08201905081810360008301526127c78189611cdd565b905081810360208301526127db8188611cdd565b905081810360408301526127ef8187611cdd565b90506127fe6060830186611c40565b61280b6080830185611d16565b81810360a083015261281d8184611cdd565b905097965050505050505056fea2646970667358221220a6f64f704eba77cc371a1a6741fac05c0f52c4e6608041efba50425f621227fc64736f6c63430008110033",
  "linkReferences": {},
  "deployedLinkReferences": {}
}