{
  "_format": "hh-sol-artifact-1",
  "contractName": "Create",
  "sourceName": "contracts/Create.sol",
  "abi": [
    {
      "inputs": [],
      "stateMutability": "nonpayable",
      "type": "constructor"
    },
    {
      "anonymous": false,
      "inputs": [
        {
          "indexed": true,
          "internalType": "uint256",
          "name": "candidateId",
          "type": "uint256"
        },
        {
          "indexed": false,
          "internalType": "string",
          "name": "age",
          "type": "string"
        },
        {
          "indexed": false,
          "internalType": "string",
          "name": "name",
          "type": "string"
        },
        {
          "indexed": false,
          "internalType": "string",
          "name": "image",
          "type": "string"
        },
        {
          "indexed": false,
          "internalType": "uint256",
          "name": "voteCount",
          "type": "uint256"
        },
        {
          "indexed": false,
          "internalType": "address",
          "name": "_address",
          "type": "address"
        },
        {
          "indexed": false,
          "internalType": "string",
          "name": "ipfs",
          "type": "string"
        }
      ],
      "name": "CandidateCreate",
      "type": "event"
    },
    {
      "anonymous": false,
      "inputs": [
        {
          "indexed": true,
          "internalType": "uint256",
          "name": "voter_voterId",
          "type": "uint256"
        },
        {
          "indexed": false,
          "internalType": "string",
          "name": "voter_name",
          "type": "string"
        },
        {
          "indexed": false,
          "internalType": "string",
          "name": "voter_image",
          "type": "string"
        },
        {
          "indexed": false,
          "internalType": "address",
          "name": "voter_address",
          "type": "address"
        },
        {
          "indexed": false,
          "internalType": "uint256",
          "name": "voter_allowed",
          "type": "uint256"
        },
        {
          "indexed": false,
          "internalType": "bool",
          "name": "voter_voted",
          "type": "bool"
        },
        {
          "indexed": false,
          "internalType": "uint256",
          "name": "voted_vote",
          "type": "uint256"
        },
        {
          "indexed": false,
          "internalType": "string",
          "name": "voter_ipfs",
          "type": "string"
        }
      ],
      "name": "VoterCreated",
      "type": "event"
    },
    {
      "inputs": [],
      "name": "_candidateId",
      "outputs": [
        {
          "internalType": "uint256",
          "name": "_value",
          "type": "uint256"
        }
      ],
      "stateMutability": "view",
      "type": "function"
    },
    {
      "inputs": [],
      "name": "_voterId",
      "outputs": [
        {
          "internalType": "uint256",
          "name": "_value",
          "type": "uint256"
        }
      ],
      "stateMutability": "view",
      "type": "function"
    },
    {
      "inputs": [
        {
          "internalType": "uint256",
          "name": "",
          "type": "uint256"
        }
      ],
      "name": "candidateAdress",
      "outputs": [
        {
          "internalType": "address",
          "name": "",
          "type": "address"
        }
      ],
      "stateMutability": "view",
      "type": "function"
    },
    {
      "inputs": [
        {
          "internalType": "address",
          "name": "",
          "type": "address"
        }
      ],
      "name": "candidates",
      "outputs": [
        {
          "internalType": "uint256",
          "name": "candidateId",
          "type": "uint256"
        },
        {
          "internalType": "string",
          "name": "age",
          "type": "string"
        },
        {
          "internalType": "string",
          "name": "name",
          "type": "string"
        },
        {
          "internalType": "string",
          "name": "image",
          "type": "string"
        },
        {
          "internalType": "uint256",
          "name": "voteCount",
          "type": "uint256"
        },
        {
          "internalType": "address",
          "name": "_address",
          "type": "address"
        },
        {
          "internalType": "string",
          "name": "ipfs",
          "type": "string"
        }
      ],
      "stateMutability": "view",
      "type": "function"
    },
    {
      "inputs": [],
      "name": "getCandidate",
      "outputs": [
        {
          "internalType": "address[]",
          "name": "",
          "type": "address[]"
        }
      ],
      "stateMutability": "view",
      "type": "function"
    },
    {
      "inputs": [
        {
          "internalType": "address",
          "name": "_address",
          "type": "address"
        }
      ],
      "name": "getCandidateData",
      "outputs": [
        {
          "internalType": "string",
          "name": "",
          "type": "string"
        },
        {
          "internalType": "string",
          "name": "",
          "type": "string"
        },
        {
          "internalType": "uint256",
          "name": "",
          "type": "uint256"
        },
        {
          "internalType": "string",
          "name": "",
          "type": "string"
        },
        {
          "internalType": "uint256",
          "name": "",
          "type": "uint256"
        },
        {
          "internalType": "string",
          "name": "",
          "type": "string"
        },
        {
          "internalType": "address",
          "name": "",
          "type": "address"
        }
      ],
      "stateMutability": "view",
      "type": "function"
    },
    {
      "inputs": [],
      "name": "getCandidateLength",
      "outputs": [
        {
          "internalType": "uint256",
          "name": "",
          "type": "uint256"
        }
      ],
      "stateMutability": "view",
      "type": "function"
    },
    {
      "inputs": [],
      "name": "getVotedVoterList",
      "outputs": [
        {
          "internalType": "address[]",
          "name": "",
          "type": "address[]"
        }
      ],
      "stateMutability": "view",
      "type": "function"
    },
    {
      "inputs": [
        {
          "internalType": "address",
          "name": "_address",
          "type": "address"
        }
      ],
      "name": "getVotefromCandidate",
      "outputs": [
        {
          "internalType": "uint256",
          "name": "",
          "type": "uint256"
        }
      ],
      "stateMutability": "view",
      "type": "function"
    },
    {
      "inputs": [
        {
          "internalType": "address",
          "name": "_address",
          "type": "address"
        }
      ],
      "name": "getVoterData",
      "outputs": [
        {
          "internalType": "uint256",
          "name": "",
          "type": "uint256"
        },
        {
          "internalType": "string",
          "name": "",
          "type": "string"
        },
        {
          "internalType": "string",
          "name": "",
          "type": "string"
        },
        {
          "internalType": "address",
          "name": "",
          "type": "address"
        },
        {
          "internalType": "string",
          "name": "",
          "type": "string"
        },
        {
          "internalType": "uint256",
          "name": "",
          "type": "uint256"
        },
        {
          "internalType": "bool",
          "name": "",
          "type": "bool"
        }
      ],
      "stateMutability": "view",
      "type": "function"
    },
    {
      "inputs": [],
      "name": "getVoterLength",
      "outputs": [
        {
          "internalType": "uint256",
          "name": "",
          "type": "uint256"
        }
      ],
      "stateMutability": "view",
      "type": "function"
    },
    {
      "inputs": [],
      "name": "getVoterList",
      "outputs": [
        {
          "internalType": "address[]",
          "name": "",
          "type": "address[]"
        }
      ],
      "stateMutability": "view",
      "type": "function"
    },
    {
      "inputs": [],
      "name": "getWinner",
      "outputs": [
        {
          "internalType": "address",
          "name": "",
          "type": "address"
        }
      ],
      "stateMutability": "view",
      "type": "function"
    },
    {
      "inputs": [
        {
          "internalType": "address",
          "name": "_address",
          "type": "address"
        },
        {
          "internalType": "string",
          "name": "_age",
          "type": "string"
        },
        {
          "internalType": "string",
          "name": "_name",
          "type": "string"
        },
        {
          "internalType": "string",
          "name": "_image",
          "type": "string"
        },
        {
          "internalType": "string",
          "name": "_ipfs",
          "type": "string"
        }
      ],
      "name": "setCandidate",
      "outputs": [],
      "stateMutability": "nonpayable",
      "type": "function"
    },
    {
      "inputs": [
        {
          "internalType": "address",
          "name": "_candidateAddress",
          "type": "address"
        },
        {
          "internalType": "uint256",
          "name": "_candidateVoteId",
          "type": "uint256"
        }
      ],
      "name": "vote",
      "outputs": [],
      "stateMutability": "nonpayable",
      "type": "function"
    },
    {
      "inputs": [
        {
          "internalType": "uint256",
          "name": "",
          "type": "uint256"
        }
      ],
      "name": "votedVoters",
      "outputs": [
        {
          "internalType": "address",
          "name": "",
          "type": "address"
        }
      ],
      "stateMutability": "view",
      "type": "function"
    },
    {
      "inputs": [
        {
          "internalType": "address",
          "name": "_address",
          "type": "address"
        },
        {
          "internalType": "string",
          "name": "_name",
          "type": "string"
        },
        {
          "internalType": "string",
          "name": "_image",
          "type": "string"
        },
        {
          "internalType": "string",
          "name": "_ipfs",
          "type": "string"
        }
      ],
      "name": "voterRight",
      "outputs": [],
      "stateMutability": "nonpayable",
      "type": "function"
    },
    {
      "inputs": [
        {
          "internalType": "address",
          "name": "",
          "type": "address"
        }
      ],
      "name": "voters",
      "outputs": [
        {
          "internalType": "uint256",
          "name": "voter_voterId",
          "type": "uint256"
        },
        {
          "internalType": "string",
          "name": "voter_name",
          "type": "string"
        },
        {
          "internalType": "string",
          "name": "voter_image",
          "type": "string"
        },
        {
          "internalType": "address",
          "name": "voter_address",
          "type": "address"
        },
        {
          "internalType": "uint256",
          "name": "voter_allowed",
          "type": "uint256"
        },
        {
          "internalType": "bool",
          "name": "voter_voted",
          "type": "bool"
        },
        {
          "internalType": "uint256",
          "name": "voter_vote",
          "type": "uint256"
        },
        {
          "internalType": "string",
          "name": "voter_ipfs",
          "type": "string"
        }
      ],
      "stateMutability": "view",
      "type": "function"
    },
    {
      "inputs": [
        {
          "internalType": "uint256",
          "name": "",
          "type": "uint256"
        }
      ],
      "name": "votersAddress",
      "outputs": [
        {
          "internalType": "address",
          "name": "",
          "type": "address"
        }
      ],
      "stateMutability": "view",
      "type": "function"
    },
    {
      "inputs": [],
      "name": "votingOrganiser",
      "outputs": [
        {
          "internalType": "address",
          "name": "",
          "type": "address"
        }
      ],
      "stateMutability": "view",
      "type": "function"
    }
  ],
  "bytecode": "0x608060405234801561001057600080fd5b5033600260006101000a81548173ffffffffffffffffffffffffffffffffffffffff021916908373ffffffffffffffffffffffffffffffffffffffff160217905550612d9c806100616000396000f3fe608060405234801561001057600080fd5b506004361061012c5760003560e01c80638fb4cd80116100ad578063b9be315211610071578063b9be315214610386578063c91ec712146103a4578063cd948ab7146103c0578063d1937c4a146103de578063f7522a831461040e5761012c565b80638fb4cd80146102ad578063a3ec138d146102e3578063a73889671461031a578063b10abb3614610338578063b28d92ae146103685761012c565b806370218b85116100f457806370218b85146101ed5780637831ffb31461020b5780638ab66a901461023b5780638e7ea5b2146102715780638e9456851461028f5761012c565b80630361419e1461013157806305ad45a41461014d5780632a466ac71461016b57806343242daa146101a15780635f74bbde146101d1575b600080fd5b61014b60048036038101906101469190611efc565b61042c565b005b610155610775565b6040516101629190611fd0565b60405180910390f35b61018560048036038101906101809190611feb565b610782565b60405161019897969594939291906120a6565b60405180910390f35b6101bb60048036038101906101b6919061215d565b610bc9565b6040516101c8919061218a565b60405180910390f35b6101eb60048036038101906101e691906121a5565b610c08565b005b6101f5610dcf565b60405161020291906122a3565b60405180910390f35b6102256004803603810190610220919061215d565b610e5d565b604051610232919061218a565b60405180910390f35b61025560048036038101906102509190611feb565b610e9c565b60405161026897969594939291906122c5565b60405180910390f35b61027961111e565b604051610286919061218a565b60405180910390f35b61029761124d565b6040516102a491906122a3565b60405180910390f35b6102c760048036038101906102c29190611feb565b6112db565b6040516102da979695949392919061236b565b60405180910390f35b6102fd60048036038101906102f89190611feb565b6116a3565b6040516103119897969594939291906123ef565b60405180910390f35b6103226118b0565b60405161032f9190611fd0565b60405180910390f35b610352600480360381019061034d919061215d565b6118bc565b60405161035f919061218a565b60405180910390f35b6103706118fb565b60405161037d91906122a3565b60405180910390f35b61038e611989565b60405161039b9190611fd0565b60405180910390f35b6103be60048036038101906103b99190612482565b611995565b005b6103c8611ca1565b6040516103d5919061218a565b60405180910390f35b6103f860048036038101906103f39190611feb565b611cc7565b6040516104059190611fd0565b60405180910390f35b610416611d13565b6040516104239190611fd0565b60405180910390f35b3373ffffffffffffffffffffffffffffffffffffffff16600260009054906101000a900473ffffffffffffffffffffffffffffffffffffffff1673ffffffffffffffffffffffffffffffffffffffff16146104bc576040517f08c379a00000000000000000000000000000000000000000000000000000000081526004016104b3906125df565b60405180910390fd5b600073ffffffffffffffffffffffffffffffffffffffff16600760008673ffffffffffffffffffffffffffffffffffffffff1673ffffffffffffffffffffffffffffffffffffffff16815260200190815260200160002060030160009054906101000a900473ffffffffffffffffffffffffffffffffffffffff1673ffffffffffffffffffffffffffffffffffffffff161461058d576040517f08c379a00000000000000000000000000000000000000000000000000000000081526004016105849061264b565b60405180910390fd5b6105976000611d20565b60006105a36000611d36565b90506000600760008773ffffffffffffffffffffffffffffffffffffffff1673ffffffffffffffffffffffffffffffffffffffff168152602001908152602001600020905060008160040154146105f957600080fd5b60018160040181905550848160010190816106149190612877565b50838160020190816106269190612877565b50858160030160006101000a81548173ffffffffffffffffffffffffffffffffffffffff021916908373ffffffffffffffffffffffffffffffffffffffff1602179055508181600001819055506103e8816006018190555060008160050160006101000a81548160ff021916908315150217905550828160070190816106ac9190612877565b506006869080600181540180825580915050600190039060005260206000200160009091909190916101000a81548173ffffffffffffffffffffffffffffffffffffffff021916908373ffffffffffffffffffffffffffffffffffffffff160217905550817ff5f39971dd62d9929e3a9feaa6bb77fe7c7da0001babff8a65a7e51ad0201c1986868985600401548660050160009054906101000a900460ff1687600601548a6040516107659796959493929190612949565b60405180910390a2505050505050565b6000600680549050905090565b60608060006060600060606000600460008973ffffffffffffffffffffffffffffffffffffffff1673ffffffffffffffffffffffffffffffffffffffff168152602001908152602001600020600101600460008a73ffffffffffffffffffffffffffffffffffffffff1673ffffffffffffffffffffffffffffffffffffffff168152602001908152602001600020600201600460008b73ffffffffffffffffffffffffffffffffffffffff1673ffffffffffffffffffffffffffffffffffffffff16815260200190815260200160002060000154600460008c73ffffffffffffffffffffffffffffffffffffffff1673ffffffffffffffffffffffffffffffffffffffff168152602001908152602001600020600301600460008d73ffffffffffffffffffffffffffffffffffffffff1673ffffffffffffffffffffffffffffffffffffffff16815260200190815260200160002060040154600460008e73ffffffffffffffffffffffffffffffffffffffff1673ffffffffffffffffffffffffffffffffffffffff168152602001908152602001600020600601600460008f73ffffffffffffffffffffffffffffffffffffffff1673ffffffffffffffffffffffffffffffffffffffff16815260200190815260200160002060050160009054906101000a900473ffffffffffffffffffffffffffffffffffffffff1686805461098c9061269a565b80601f01602080910402602001604051908101604052809291908181526020018280546109b89061269a565b8015610a055780601f106109da57610100808354040283529160200191610a05565b820191906000526020600020905b8154815290600101906020018083116109e857829003601f168201915b50505050509650858054610a189061269a565b80601f0160208091040260200160405190810160405280929190818152602001828054610a449061269a565b8015610a915780601f10610a6657610100808354040283529160200191610a91565b820191906000526020600020905b815481529060010190602001808311610a7457829003601f168201915b50505050509550838054610aa49061269a565b80601f0160208091040260200160405190810160405280929190818152602001828054610ad09061269a565b8015610b1d5780601f10610af257610100808354040283529160200191610b1d565b820191906000526020600020905b815481529060010190602001808311610b0057829003601f168201915b50505050509350818054610b309061269a565b80601f0160208091040260200160405190810160405280929190818152602001828054610b5c9061269a565b8015610ba95780601f10610b7e57610100808354040283529160200191610ba9565b820191906000526020600020905b815481529060010190602001808311610b8c57829003601f168201915b505050505091509650965096509650965096509650919395979092949650565b60068181548110610bd957600080fd5b906000526020600020016000915054906101000a900473ffffffffffffffffffffffffffffffffffffffff1681565b6000600760003373ffffffffffffffffffffffffffffffffffffffff1673ffffffffffffffffffffffffffffffffffffffff16815260200190815260200160002090508060050160009054906101000a900460ff1615610c9d576040517f08c379a0000000000000000000000000000000000000000000000000000000008152600401610c9490612a19565b60405180910390fd5b6000816004015403610ce4576040517f08c379a0000000000000000000000000000000000000000000000000000000008152600401610cdb90612a85565b60405180910390fd5b60018160050160006101000a81548160ff0219169083151502179055508181600601819055506005339080600181540180825580915050600190039060005260206000200160009091909190916101000a81548173ffffffffffffffffffffffffffffffffffffffff021916908373ffffffffffffffffffffffffffffffffffffffff1602179055508060040154600460008573ffffffffffffffffffffffffffffffffffffffff1673ffffffffffffffffffffffffffffffffffffffff1681526020019081526020016000206004016000828254610dc39190612ad4565b92505081905550505050565b60606003805480602002602001604051908101604052809291908181526020018280548015610e5357602002820191906000526020600020905b8160009054906101000a900473ffffffffffffffffffffffffffffffffffffffff1673ffffffffffffffffffffffffffffffffffffffff1681526020019060010190808311610e09575b5050505050905090565b60058181548110610e6d57600080fd5b906000526020600020016000915054906101000a900473ffffffffffffffffffffffffffffffffffffffff1681565b6004602052806000526040600020600091509050806000015490806001018054610ec59061269a565b80601f0160208091040260200160405190810160405280929190818152602001828054610ef19061269a565b8015610f3e5780601f10610f1357610100808354040283529160200191610f3e565b820191906000526020600020905b815481529060010190602001808311610f2157829003601f168201915b505050505090806002018054610f539061269a565b80601f0160208091040260200160405190810160405280929190818152602001828054610f7f9061269a565b8015610fcc5780601f10610fa157610100808354040283529160200191610fcc565b820191906000526020600020905b815481529060010190602001808311610faf57829003601f168201915b505050505090806003018054610fe19061269a565b80601f016020809104026020016040519081016040528092919081815260200182805461100d9061269a565b801561105a5780601f1061102f5761010080835404028352916020019161105a565b820191906000526020600020905b81548152906001019060200180831161103d57829003601f168201915b5050505050908060040154908060050160009054906101000a900473ffffffffffffffffffffffffffffffffffffffff169080600601805461109b9061269a565b80601f01602080910402602001604051908101604052809291908181526020018280546110c79061269a565b80156111145780601f106110e957610100808354040283529160200191611114565b820191906000526020600020905b8154815290600101906020018083116110f757829003601f168201915b5050505050905087565b600080600090506000806000905060005b6003805490508110156112005760006003828154811061115257611151612b08565b5b9060005260206000200160009054906101000a900473ffffffffffffffffffffffffffffffffffffffff1690506000600460008373ffffffffffffffffffffffffffffffffffffffff1673ffffffffffffffffffffffffffffffffffffffff1681526020019081526020016000206004015490508581106111eb578581036111e4576001846111e19190612ad4565b93505b8095508194505b505080806111f890612b37565b91505061112f565b5060008114611244576040517f08c379a000000000000000000000000000000000000000000000000000000000815260040161123b90612bcb565b60405180910390fd5b81935050505090565b606060058054806020026020016040519081016040528092919081815260200182805480156112d157602002820191906000526020600020905b8160009054906101000a900473ffffffffffffffffffffffffffffffffffffffff1673ffffffffffffffffffffffffffffffffffffffff1681526020019060010190808311611287575b5050505050905090565b600060608060006060600080600760008973ffffffffffffffffffffffffffffffffffffffff1673ffffffffffffffffffffffffffffffffffffffff16815260200190815260200160002060000154600760008a73ffffffffffffffffffffffffffffffffffffffff1673ffffffffffffffffffffffffffffffffffffffff168152602001908152602001600020600101600760008b73ffffffffffffffffffffffffffffffffffffffff1673ffffffffffffffffffffffffffffffffffffffff168152602001908152602001600020600201600760008c73ffffffffffffffffffffffffffffffffffffffff1673ffffffffffffffffffffffffffffffffffffffff16815260200190815260200160002060030160009054906101000a900473ffffffffffffffffffffffffffffffffffffffff16600760008d73ffffffffffffffffffffffffffffffffffffffff1673ffffffffffffffffffffffffffffffffffffffff168152602001908152602001600020600701600760008e73ffffffffffffffffffffffffffffffffffffffff1673ffffffffffffffffffffffffffffffffffffffff16815260200190815260200160002060040154600760008f73ffffffffffffffffffffffffffffffffffffffff1673ffffffffffffffffffffffffffffffffffffffff16815260200190815260200160002060050160009054906101000a900460ff168580546114f29061269a565b80601f016020809104026020016040519081016040528092919081815260200182805461151e9061269a565b801561156b5780601f106115405761010080835404028352916020019161156b565b820191906000526020600020905b81548152906001019060200180831161154e57829003601f168201915b5050505050955084805461157e9061269a565b80601f01602080910402602001604051908101604052809291908181526020018280546115aa9061269a565b80156115f75780601f106115cc576101008083540402835291602001916115f7565b820191906000526020600020905b8154815290600101906020018083116115da57829003601f168201915b5050505050945082805461160a9061269a565b80601f01602080910402602001604051908101604052809291908181526020018280546116369061269a565b80156116835780601f1061165857610100808354040283529160200191611683565b820191906000526020600020905b81548152906001019060200180831161166657829003601f168201915b505050505092509650965096509650965096509650919395979092949650565b60076020528060005260406000206000915090508060000154908060010180546116cc9061269a565b80601f01602080910402602001604051908101604052809291908181526020018280546116f89061269a565b80156117455780601f1061171a57610100808354040283529160200191611745565b820191906000526020600020905b81548152906001019060200180831161172857829003601f168201915b50505050509080600201805461175a9061269a565b80601f01602080910402602001604051908101604052809291908181526020018280546117869061269a565b80156117d35780601f106117a8576101008083540402835291602001916117d3565b820191906000526020600020905b8154815290600101906020018083116117b657829003601f168201915b5050505050908060030160009054906101000a900473ffffffffffffffffffffffffffffffffffffffff16908060040154908060050160009054906101000a900460ff169080600601549080600701805461182d9061269a565b80601f01602080910402602001604051908101604052809291908181526020018280546118599061269a565b80156118a65780601f1061187b576101008083540402835291602001916118a6565b820191906000526020600020905b81548152906001019060200180831161188957829003601f168201915b5050505050905088565b60018060000154905081565b600381815481106118cc57600080fd5b906000526020600020016000915054906101000a900473ffffffffffffffffffffffffffffffffffffffff1681565b6060600680548060200260200160405190810160405280929190818152602001828054801561197f57602002820191906000526020600020905b8160009054906101000a900473ffffffffffffffffffffffffffffffffffffffff1673ffffffffffffffffffffffffffffffffffffffff1681526020019060010190808311611935575b5050505050905090565b60008060000154905081565b3373ffffffffffffffffffffffffffffffffffffffff16600260009054906101000a900473ffffffffffffffffffffffffffffffffffffffff1673ffffffffffffffffffffffffffffffffffffffff1614611a25576040517f08c379a0000000000000000000000000000000000000000000000000000000008152600401611a1c90612c5d565b60405180910390fd5b600073ffffffffffffffffffffffffffffffffffffffff16600460008773ffffffffffffffffffffffffffffffffffffffff1673ffffffffffffffffffffffffffffffffffffffff16815260200190815260200160002060050160009054906101000a900473ffffffffffffffffffffffffffffffffffffffff1673ffffffffffffffffffffffffffffffffffffffff1614611af6576040517f08c379a0000000000000000000000000000000000000000000000000000000008152600401611aed90612cc9565b60405180910390fd5b611b006001611d20565b6000611b0c6001611d36565b90506000600460008873ffffffffffffffffffffffffffffffffffffffff1673ffffffffffffffffffffffffffffffffffffffff168152602001908152602001600020905085816001019081611b629190612877565b5084816002019081611b749190612877565b5081816000018190555083816003019081611b8f9190612877565b5060008160040181905550868160050160006101000a81548173ffffffffffffffffffffffffffffffffffffffff021916908373ffffffffffffffffffffffffffffffffffffffff16021790555082816006019081611bee9190612877565b506003879080600181540180825580915050600190039060005260206000200160009091909190916101000a81548173ffffffffffffffffffffffffffffffffffffffff021916908373ffffffffffffffffffffffffffffffffffffffff160217905550817fd297f12b256bb8485a6013fb5e302017018123e99a0ebb20756c09e1707b4b9087878785600401548c89604051611c9096959493929190612ce9565b60405180910390a250505050505050565b600260009054906101000a900473ffffffffffffffffffffffffffffffffffffffff1681565b6000600460008373ffffffffffffffffffffffffffffffffffffffff1673ffffffffffffffffffffffffffffffffffffffff168152602001908152602001600020600401549050919050565b6000600380549050905090565b6001816000016000828254019250508190555050565b600081600001549050919050565b6000604051905090565b600080fd5b600080fd5b600073ffffffffffffffffffffffffffffffffffffffff82169050919050565b6000611d8382611d58565b9050919050565b611d9381611d78565b8114611d9e57600080fd5b50565b600081359050611db081611d8a565b92915050565b600080fd5b600080fd5b6000601f19601f8301169050919050565b7f4e487b7100000000000000000000000000000000000000000000000000000000600052604160045260246000fd5b611e0982611dc0565b810181811067ffffffffffffffff82111715611e2857611e27611dd1565b5b80604052505050565b6000611e3b611d44565b9050611e478282611e00565b919050565b600067ffffffffffffffff821115611e6757611e66611dd1565b5b611e7082611dc0565b9050602081019050919050565b82818337600083830152505050565b6000611e9f611e9a84611e4c565b611e31565b905082815260208101848484011115611ebb57611eba611dbb565b5b611ec6848285611e7d565b509392505050565b600082601f830112611ee357611ee2611db6565b5b8135611ef3848260208601611e8c565b91505092915050565b60008060008060808587031215611f1657611f15611d4e565b5b6000611f2487828801611da1565b945050602085013567ffffffffffffffff811115611f4557611f44611d53565b5b611f5187828801611ece565b935050604085013567ffffffffffffffff811115611f7257611f71611d53565b5b611f7e87828801611ece565b925050606085013567ffffffffffffffff811115611f9f57611f9e611d53565b5b611fab87828801611ece565b91505092959194509250565b6000819050919050565b611fca81611fb7565b82525050565b6000602082019050611fe56000830184611fc1565b92915050565b60006020828403121561200157612000611d4e565b5b600061200f84828501611da1565b91505092915050565b600081519050919050565b600082825260208201905092915050565b60005b83811015612052578082015181840152602081019050612037565b60008484015250505050565b600061206982612018565b6120738185612023565b9350612083818560208601612034565b61208c81611dc0565b840191505092915050565b6120a081611d78565b82525050565b600060e08201905081810360008301526120c0818a61205e565b905081810360208301526120d4818961205e565b90506120e36040830188611fc1565b81810360608301526120f5818761205e565b90506121046080830186611fc1565b81810360a0830152612116818561205e565b905061212560c0830184612097565b98975050505050505050565b61213a81611fb7565b811461214557600080fd5b50565b60008135905061215781612131565b92915050565b60006020828403121561217357612172611d4e565b5b600061218184828501612148565b91505092915050565b600060208201905061219f6000830184612097565b92915050565b600080604083850312156121bc576121bb611d4e565b5b60006121ca85828601611da1565b92505060206121db85828601612148565b9150509250929050565b600081519050919050565b600082825260208201905092915050565b6000819050602082019050919050565b61221a81611d78565b82525050565b600061222c8383612211565b60208301905092915050565b6000602082019050919050565b6000612250826121e5565b61225a81856121f0565b935061226583612201565b8060005b8381101561229657815161227d8882612220565b975061228883612238565b925050600181019050612269565b5085935050505092915050565b600060208201905081810360008301526122bd8184612245565b905092915050565b600060e0820190506122da600083018a611fc1565b81810360208301526122ec818961205e565b90508181036040830152612300818861205e565b90508181036060830152612314818761205e565b90506123236080830186611fc1565b61233060a0830185612097565b81810360c0830152612342818461205e565b905098975050505050505050565b60008115159050919050565b61236581612350565b82525050565b600060e082019050612380600083018a611fc1565b8181036020830152612392818961205e565b905081810360408301526123a6818861205e565b90506123b56060830187612097565b81810360808301526123c7818661205e565b90506123d660a0830185611fc1565b6123e360c083018461235c565b98975050505050505050565b600061010082019050612405600083018b611fc1565b8181036020830152612417818a61205e565b9050818103604083015261242b818961205e565b905061243a6060830188612097565b6124476080830187611fc1565b61245460a083018661235c565b61246160c0830185611fc1565b81810360e0830152612473818461205e565b90509998505050505050505050565b600080600080600060a0868803121561249e5761249d611d4e565b5b60006124ac88828901611da1565b955050602086013567ffffffffffffffff8111156124cd576124cc611d53565b5b6124d988828901611ece565b945050604086013567ffffffffffffffff8111156124fa576124f9611d53565b5b61250688828901611ece565b935050606086013567ffffffffffffffff81111561252757612526611d53565b5b61253388828901611ece565b925050608086013567ffffffffffffffff81111561255457612553611d53565b5b61256088828901611ece565b9150509295509295909350565b7f4f6e6c79206f7267616e697365722063616e20637265617465206120766f746560008201527f7200000000000000000000000000000000000000000000000000000000000000602082015250565b60006125c9602183612023565b91506125d48261256d565b604082019050919050565b600060208201905081810360008301526125f8816125bc565b9050919050565b7f566f74657220416c726561647920457869737473000000000000000000000000600082015250565b6000612635601483612023565b9150612640826125ff565b602082019050919050565b6000602082019050818103600083015261266481612628565b9050919050565b7f4e487b7100000000000000000000000000000000000000000000000000000000600052602260045260246000fd5b600060028204905060018216806126b257607f821691505b6020821081036126c5576126c461266b565b5b50919050565b60008190508160005260206000209050919050565b60006020601f8301049050919050565b600082821b905092915050565b60006008830261272d7fffffffffffffffffffffffffffffffffffffffffffffffffffffffffffffffff826126f0565b61273786836126f0565b95508019841693508086168417925050509392505050565b6000819050919050565b600061277461276f61276a84611fb7565b61274f565b611fb7565b9050919050565b6000819050919050565b61278e83612759565b6127a261279a8261277b565b8484546126fd565b825550505050565b600090565b6127b76127aa565b6127c2818484612785565b505050565b5b818110156127e6576127db6000826127af565b6001810190506127c8565b5050565b601f82111561282b576127fc816126cb565b612805846126e0565b81016020851015612814578190505b612828612820856126e0565b8301826127c7565b50505b505050565b600082821c905092915050565b600061284e60001984600802612830565b1980831691505092915050565b6000612867838361283d565b9150826002028217905092915050565b61288082612018565b67ffffffffffffffff81111561289957612898611dd1565b5b6128a3825461269a565b6128ae8282856127ea565b600060209050601f8311600181146128e157600084156128cf578287015190505b6128d9858261285b565b865550612941565b601f1984166128ef866126cb565b60005b82811015612917578489015182556001820191506020850194506020810190506128f2565b868310156129345784890151612930601f89168261283d565b8355505b6001600288020188555050505b505050505050565b600060e0820190508181036000830152612963818a61205e565b90508181036020830152612977818961205e565b90506129866040830188612097565b6129936060830187611fc1565b6129a0608083018661235c565b6129ad60a0830185611fc1565b81810360c08301526129bf818461205e565b905098975050505050505050565b7f596f75206861766520616c726561647920766f74656400000000000000000000600082015250565b6000612a03601683612023565b9150612a0e826129cd565b602082019050919050565b60006020820190508181036000830152612a32816129f6565b9050919050565b7f596f752068617665204e6f20726967687420746f20766f746500000000000000600082015250565b6000612a6f601983612023565b9150612a7a82612a39565b602082019050919050565b60006020820190508181036000830152612a9e81612a62565b9050919050565b7f4e487b7100000000000000000000000000000000000000000000000000000000600052601160045260246000fd5b6000612adf82611fb7565b9150612aea83611fb7565b9250828201905080821115612b0257612b01612aa5565b5b92915050565b7f4e487b7100000000000000000000000000000000000000000000000000000000600052603260045260246000fd5b6000612b4282611fb7565b91507fffffffffffffffffffffffffffffffffffffffffffffffffffffffffffffffff8203612b7457612b73612aa5565b5b600182019050919050565b7f54686520566f7465207761732061206472617700000000000000000000000000600082015250565b6000612bb5601383612023565b9150612bc082612b7f565b602082019050919050565b60006020820190508181036000830152612be481612ba8565b9050919050565b7f4f6e6c79204f7267616e697365722063616e20617574686f72697a656420636160008201527f6e64696461746500000000000000000000000000000000000000000000000000602082015250565b6000612c47602783612023565b9150612c5282612beb565b604082019050919050565b60006020820190508181036000830152612c7681612c3a565b9050919050565b7f43616e64696461746520416c7265616479204578697374730000000000000000600082015250565b6000612cb3601883612023565b9150612cbe82612c7d565b602082019050919050565b60006020820190508181036000830152612ce281612ca6565b9050919050565b600060c0820190508181036000830152612d03818961205e565b90508181036020830152612d17818861205e565b90508181036040830152612d2b818761205e565b9050612d3a6060830186611fc1565b612d476080830185612097565b81810360a0830152612d59818461205e565b905097965050505050505056fea2646970667358221220da02a3b779d769fe4ef956776a905f5600a94a093614953705b897c50599e9b264736f6c63430008110033",
  "linkReferences": {},
  "deployedLinkReferences": {}
}